:040000000C944F000D
:100004000C9400000C9400000C9400000C9400006C
:100014000C9400000C9400000C9400000C9400005C
:100024000C9400000C9400000C9400000C9400004C
:100034000C9400000C9400000C9400000C9400003C
:100044000C9400000C9400000C9400000C9400002C
:100054000C9400000C9400000C9400000C9400001C
:100064000C9400000C9400000C9400000C9400000C
:100074000C9400000C9400000C9400000C940000FC
:100084000C9400000C9400006400E8036400640015
:1000940001000A0004008C000000F894EE27ECBB79
:1000A400F1E0F5BFE5BFE0936C008DE0A2E0BB2773
:1000B400ED938A95E9F780E090E1A0E0B1E0ED935B
:1000C4000197E9F7E6E9F0E085919591009761F0F1
:1000D400A591B59105901590BF01F00105900D9281
:1000E4000197E1F7FB01F0CFEFEFEDBFE0E1EEBFE9
:1000F400C0E0D5E00C947E00EFEFE4BBE0E0E5BBAC
:1001040008D0D2010E94A000E5B3E095E5BBF8CF8A
:10011400FFCF641475041CF4CC24DD2406C04814F9
:1001240059041CF4E1E0F0E06F010C2C0D2819F0E7
:100134004A0C5B1C02C04A185B080895109639F0FB
:10014400A8958AEF90E00197F1F71197C9F7089500
:00000001FF
